{
  "contractName": "Taxation",
  "abi": [
    {
      "inputs": [],
      "stateMutability": "nonpayable",
      "type": "constructor"
    },
    {
      "inputs": [],
      "name": "_filersIds",
      "outputs": [
        {
          "internalType": "uint256",
          "name": "_value",
          "type": "uint256"
        }
      ],
      "stateMutability": "view",
      "type": "function",
      "constant": true
    },
    {
      "inputs": [],
      "name": "adminMain",
      "outputs": [
        {
          "internalType": "address",
          "name": "",
          "type": "address"
        }
      ],
      "stateMutability": "view",
      "type": "function",
      "constant": true
    },
    {
      "inputs": [
        {
          "internalType": "uint256",
          "name": "",
          "type": "uint256"
        }
      ],
      "name": "userList",
      "outputs": [
        {
          "internalType": "address",
          "name": "",
          "type": "address"
        }
      ],
      "stateMutability": "view",
      "type": "function",
      "constant": true
    },
    {
      "inputs": [
        {
          "internalType": "uint256",
          "name": "_salary",
          "type": "uint256"
        },
        {
          "internalType": "uint256",
          "name": "_business",
          "type": "uint256"
        },
        {
          "internalType": "uint256",
          "name": "_agriculture",
          "type": "uint256"
        },
        {
          "internalType": "uint256",
          "name": "_freelance",
          "type": "uint256"
        },
        {
          "internalType": "uint256",
          "name": "_bankAccountNo",
          "type": "uint256"
        },
        {
          "internalType": "string",
          "name": "_vehicalName",
          "type": "string"
        },
        {
          "internalType": "uint256",
          "name": "_vehicalMarketValue",
          "type": "uint256"
        },
        {
          "internalType": "string",
          "name": "_vehicalRegNo",
          "type": "string"
        },
        {
          "internalType": "uint256",
          "name": "_property",
          "type": "uint256"
        },
        {
          "internalType": "uint256",
          "name": "_cash",
          "type": "uint256"
        }
      ],
      "name": "becomeFiler",
      "outputs": [],
      "stateMutability": "nonpayable",
      "type": "function"
    },
    {
      "inputs": [
        {
          "internalType": "address",
          "name": "_owner",
          "type": "address"
        }
      ],
      "name": "verifyFiler",
      "outputs": [],
      "stateMutability": "nonpayable",
      "type": "function"
    },
    {
      "inputs": [
        {
          "internalType": "address",
          "name": "_owner",
          "type": "address"
        }
      ],
      "name": "getFiler",
      "outputs": [
        {
          "internalType": "address",
          "name": "",
          "type": "address"
        },
        {
          "internalType": "uint256",
          "name": "",
          "type": "uint256"
        },
        {
          "internalType": "uint256",
          "name": "",
          "type": "uint256"
        },
        {
          "internalType": "uint256",
          "name": "",
          "type": "uint256"
        },
        {
          "internalType": "uint256",
          "name": "",
          "type": "uint256"
        },
        {
          "internalType": "uint256",
          "name": "",
          "type": "uint256"
        }
      ],
      "stateMutability": "view",
      "type": "function",
      "constant": true
    },
    {
      "inputs": [
        {
          "internalType": "address",
          "name": "_owner",
          "type": "address"
        }
      ],
      "name": "getFilerRemainingData",
      "outputs": [
        {
          "internalType": "string",
          "name": "",
          "type": "string"
        },
        {
          "internalType": "uint256",
          "name": "",
          "type": "uint256"
        },
        {
          "internalType": "string",
          "name": "",
          "type": "string"
        },
        {
          "internalType": "string",
          "name": "",
          "type": "string"
        },
        {
          "internalType": "uint256",
          "name": "",
          "type": "uint256"
        },
        {
          "internalType": "uint256",
          "name": "",
          "type": "uint256"
        },
        {
          "internalType": "bool",
          "name": "",
          "type": "bool"
        }
      ],
      "stateMutability": "view",
      "type": "function",
      "constant": true
    },
    {
      "inputs": [
        {
          "internalType": "address",
          "name": "user",
          "type": "address"
        }
      ],
      "name": "checkAuth",
      "outputs": [
        {
          "internalType": "bool",
          "name": "",
          "type": "bool"
        }
      ],
      "stateMutability": "view",
      "type": "function",
      "constant": true
    }
  ],
  "bytecode": "0x608060405234801561001057600080fd5b50600180546001600160a01b03191633179055610bab806100326000396000f3fe608060405234801561001057600080fd5b50600436106100885760003560e01c8063722f75021161005b578063722f7502146101035780638fd595b7146101295780639f4216e81461013e578063d2a988581461015157610088565b80631d9507391461008d578063332ace90146100a25780634b165090146100b557806366c6a292146100de575b600080fd5b6100a061009b366004610903565b610166565b005b6100a06100b0366004610949565b6101d2565b6100c86100c3366004610903565b610506565b6040516100d59190610a8b565b60405180910390f35b6100f16100ec366004610903565b610530565b6040516100d596959493929190610a58565b610116610111366004610903565b610579565b6040516100d59796959493929190610a96565b610131610789565b6040516100d59190610a44565b61013161014c366004610931565b610798565b6101596107c2565b6040516100d59190610af7565b6001546001600160a01b0316331461017d57600080fd5b6001600160a01b0381166000908152600360205260409020600d015460ff161515600114156101ab57600080fd5b6001600160a01b03166000908152600360205260409020600d01805460ff19166001179055565b3360009081526004602052604090205474010000000000000000000000000000000000000000900460ff1615156001141561020c57600080fd5b61021660006107c8565b600061022260006107e5565b90503360046000336001600160a01b03166001600160a01b0316815260200190815260200160002060000160006101000a8154816001600160a01b0302191690836001600160a01b03160217905550600160046000336001600160a01b03166001600160a01b0316815260200190815260200160002060000160146101000a81548160ff0219169083151502179055508060036000336001600160a01b03166001600160a01b03168152602001908152602001600020600001819055503360036000336001600160a01b03166001600160a01b0316815260200190815260200160002060010160006101000a8154816001600160a01b0302191690836001600160a01b031602179055508a60036000336001600160a01b03166001600160a01b03168152602001908152602001600020600201819055508960036000336001600160a01b03166001600160a01b03168152602001908152602001600020600301819055508860036000336001600160a01b03166001600160a01b03168152602001908152602001600020600401819055508760036000336001600160a01b03166001600160a01b03168152602001908152602001600020600501819055508660036000336001600160a01b03166001600160a01b03168152602001908152602001600020600601819055508560036000336001600160a01b03166001600160a01b0316815260200190815260200160002060070190805190602001906104499291906107e9565b5033600090815260036020908152604090912060088101879055855161047792600a909201918701906107e9565b5050336000818152600360205260408120600b810194909455600c840192909255600d909201805460ff191690556002805460018101825591527f405787fa12a823e0f2b7631cc41b3ba8828b3321ca811111fa75cd3aa3bb5ace0180547fffffffffffffffffffffffff00000000000000000000000000000000000000001690911790555050505050505050565b6001546000906001600160a01b03838116911614156105275750600161052b565b5060005b919050565b6001600160a01b03908116600090815260036020819052604090912060018101546002820154928201546004830154600584015460069094015492909516959394909390929190565b6001600160a01b03811660009081526003602052604081206008810154600b820154600c830154600d84015460078501805460609796889687968996879687969593946009810194600a90910193929160ff169087906105d890610b24565b80601f016020809104026020016040519081016040528092919081815260200182805461060490610b24565b80156106515780601f1061062657610100808354040283529160200191610651565b820191906000526020600020905b81548152906001019060200180831161063457829003601f168201915b5050505050965084805461066490610b24565b80601f016020809104026020016040519081016040528092919081815260200182805461069090610b24565b80156106dd5780601f106106b2576101008083540402835291602001916106dd565b820191906000526020600020905b8154815290600101906020018083116106c057829003601f168201915b505050505094508380546106f090610b24565b80601f016020809104026020016040519081016040528092919081815260200182805461071c90610b24565b80156107695780601f1061073e57610100808354040283529160200191610769565b820191906000526020600020905b81548152906001019060200180831161074c57829003601f168201915b505050505093509650965096509650965096509650919395979092949650565b6001546001600160a01b031681565b600281815481106107a857600080fd5b6000918252602090912001546001600160a01b0316905081565b60005481565b60018160000160008282546107dd9190610b00565b909155505050565b5490565b8280546107f590610b24565b90600052602060002090601f016020900481019282610817576000855561085d565b82601f1061083057805160ff191683800117855561085d565b8280016001018555821561085d579182015b8281111561085d578251825591602001919060010190610842565b5061086992915061086d565b5090565b5b80821115610869576000815560010161086e565b600082601f830112610892578081fd5b813567ffffffffffffffff808211156108ad576108ad610b5f565b604051601f8301601f1916810160200182811182821017156108d1576108d1610b5f565b6040528281528483016020018610156108e8578384fd5b82602086016020830137918201602001929092529392505050565b600060208284031215610914578081fd5b81356001600160a01b038116811461092a578182fd5b9392505050565b600060208284031215610942578081fd5b5035919050565b6000806000806000806000806000806101408b8d031215610968578586fd5b8a35995060208b0135985060408b0135975060608b0135965060808b0135955060a08b013567ffffffffffffffff808211156109a2578687fd5b6109ae8e838f01610882565b965060c08d0135955060e08d01359150808211156109ca578485fd5b506109d78d828e01610882565b9350506101008b013591506101208b013590509295989b9194979a5092959850565b60008151808452815b81811015610a1e57602081850181015186830182015201610a02565b81811115610a2f5782602083870101525b50601f01601f19169290920160200192915050565b6001600160a01b0391909116815260200190565b6001600160a01b03969096168652602086019490945260408501929092526060840152608083015260a082015260c00190565b901515815260200190565b600060e08252610aa960e083018a6109f9565b8860208401528281036040840152610ac181896109f9565b90508281036060840152610ad581886109f9565b6080840196909652505060a0810192909252151560c090910152949350505050565b90815260200190565b60008219821115610b1f57634e487b7160e01b81526011600452602481fd5b500190565b600281046001821680610b3857607f821691505b60208210811415610b5957634e487b7160e01b600052602260045260246000fd5b50919050565b634e487b7160e01b600052604160045260246000fdfea2646970667358221220a37c6fae8efcb9813aca5a7b75ea14e2a6c794450312a971525de13cd49f96d264736f6c63430008000033",
  "immutableReferences": {},
  "source": "//SPDX-License-Identifier: MIT\r\npragma solidity ^0.8.0;\r\n\r\nimport \"../contracts/Counter.sol\";\r\n\r\ncontract Taxation {\r\n    using Counters for Counters.Counter;\r\n    Counters.Counter public _filersIds;\r\n\r\n    address public adminMain;\r\n\r\n    address[] public userList;\r\n\r\n    constructor() {\r\n        adminMain = msg.sender;\r\n    }\r\n\r\n    modifier adminOnly() {\r\n        require(adminMain == msg.sender);\r\n        _;\r\n    }\r\n\r\n    struct Befiler {\r\n        uint256 filerID;\r\n        address owner;\r\n        uint256 salary;\r\n        uint256 business;\r\n        uint256 agriculture;\r\n        uint256 freelace;\r\n        uint256 bankAccountNo;\r\n        string vehicalName;\r\n        uint256 vehicalMarketValue;\r\n        string vehicalDocsHash;\r\n        string vehicalRegNo;\r\n        uint256 property;\r\n        uint256 cash;\r\n        bool isVerified;\r\n    }\r\n\r\n    mapping(address => Befiler) befiler;\r\n\r\n    struct Checker {\r\n        address owner;\r\n        bool isApplied;\r\n    }\r\n\r\n    mapping(address => Checker) checker;\r\n\r\n    function becomeFiler(\r\n        uint256 _salary,\r\n        uint256 _business,\r\n        uint256 _agriculture,\r\n        uint256 _freelance,\r\n        uint256 _bankAccountNo,\r\n        string memory _vehicalName,\r\n        uint256 _vehicalMarketValue,\r\n        string memory _vehicalRegNo,\r\n        uint256 _property,\r\n        uint256 _cash\r\n    ) public {\r\n        require(checker[msg.sender].isApplied != true);\r\n\r\n        _filersIds.increment();\r\n        uint256 newFilerId = _filersIds.current();\r\n\r\n        checker[msg.sender].owner = msg.sender;\r\n        checker[msg.sender].isApplied = true;\r\n\r\n        befiler[msg.sender].filerID = newFilerId;\r\n        befiler[msg.sender].owner = msg.sender;\r\n        befiler[msg.sender].salary = _salary;\r\n        befiler[msg.sender].business = _business;\r\n        befiler[msg.sender].agriculture = _agriculture;\r\n        befiler[msg.sender].freelace = _freelance;\r\n        befiler[msg.sender].bankAccountNo = _bankAccountNo;\r\n        befiler[msg.sender].vehicalName = _vehicalName;\r\n        befiler[msg.sender].vehicalMarketValue = _vehicalMarketValue;\r\n        befiler[msg.sender].vehicalRegNo = _vehicalRegNo;\r\n        befiler[msg.sender].property = _property;\r\n        befiler[msg.sender].cash = _cash;\r\n        befiler[msg.sender].isVerified = false;\r\n\r\n        userList.push(msg.sender);\r\n    }\r\n\r\n    // admin verify the filer\r\n    function verifyFiler(address _owner) public adminOnly {\r\n        require(befiler[_owner].isVerified != true);\r\n        befiler[_owner].isVerified = true;\r\n    }\r\n\r\n    // get the filer details by filer id\r\n    function getFiler(address _owner)\r\n        public\r\n        view\r\n        returns (\r\n            address,\r\n            uint256,\r\n            uint256,\r\n            uint256,\r\n            uint256,\r\n            uint256\r\n        )\r\n    {\r\n        return (\r\n            befiler[_owner].owner,\r\n            befiler[_owner].salary,\r\n            befiler[_owner].business,\r\n            befiler[_owner].agriculture,\r\n            befiler[_owner].freelace,\r\n            befiler[_owner].bankAccountNo\r\n        );\r\n    }\r\n\r\n    // get the filer remaining details by filer id\r\n    function getFilerRemainingData(address _owner)\r\n        public\r\n        view\r\n        returns (\r\n            string memory,\r\n            uint256,\r\n            string memory,\r\n            string memory,\r\n            uint256,\r\n            uint256,\r\n            bool\r\n        )\r\n    {\r\n        return (\r\n            befiler[_owner].vehicalName,\r\n            befiler[_owner].vehicalMarketValue,\r\n            befiler[_owner].vehicalDocsHash,\r\n            befiler[_owner].vehicalRegNo,\r\n            befiler[_owner].property,\r\n            befiler[_owner].cash,\r\n            befiler[_owner].isVerified\r\n        );\r\n    }\r\n\r\n    function checkAuth(address user) public view returns (bool) {\r\n        if (adminMain == user) {\r\n            return true;\r\n        } else {\r\n            return false;\r\n        }\r\n    }\r\n}\r\n",
  "sourcePath": "/home/zaryab/VSCodeProjects/taxation-system-user/src/contracts/Taxation.sol",
  "compiler": {
    "name": "solc",
    "version": "0.8.0+commit.c7dfd78e.Emscripten.clang"
  },
  "schemaVersion": "3.4.5",
  "updatedAt": "2022-05-25T18:36:57.105Z",
  "networkType": "ethereum",
  "devdoc": {
    "kind": "dev",
    "methods": {},
    "version": 1
  },
  "userdoc": {
    "kind": "user",
    "methods": {},
    "version": 1
  }
}