{
  "contractName": "Taxation",
  "abi": [
    {
      "inputs": [],
      "stateMutability": "nonpayable",
      "type": "constructor"
    },
    {
      "inputs": [],
      "name": "_filersIds",
      "outputs": [
        {
          "internalType": "uint256",
          "name": "_value",
          "type": "uint256"
        }
      ],
      "stateMutability": "view",
      "type": "function",
      "constant": true
    },
    {
      "inputs": [],
      "name": "adminMain",
      "outputs": [
        {
          "internalType": "address",
          "name": "",
          "type": "address"
        }
      ],
      "stateMutability": "view",
      "type": "function",
      "constant": true
    },
    {
      "inputs": [
        {
          "internalType": "uint256",
          "name": "_salary",
          "type": "uint256"
        },
        {
          "internalType": "uint256",
          "name": "_business",
          "type": "uint256"
        },
        {
          "internalType": "uint256",
          "name": "_agriculture",
          "type": "uint256"
        },
        {
          "internalType": "uint256",
          "name": "_freelance",
          "type": "uint256"
        },
        {
          "internalType": "uint256",
          "name": "_bankAccountNo",
          "type": "uint256"
        },
        {
          "internalType": "string",
          "name": "_vehicalName",
          "type": "string"
        },
        {
          "internalType": "uint256",
          "name": "_vehicalMarketValue",
          "type": "uint256"
        },
        {
          "internalType": "string",
          "name": "_vehicalRegNo",
          "type": "string"
        },
        {
          "internalType": "uint256",
          "name": "_property",
          "type": "uint256"
        },
        {
          "internalType": "uint256",
          "name": "_cash",
          "type": "uint256"
        }
      ],
      "name": "becomeFiler",
      "outputs": [],
      "stateMutability": "nonpayable",
      "type": "function"
    },
    {
      "inputs": [
        {
          "internalType": "uint256",
          "name": "filerId",
          "type": "uint256"
        }
      ],
      "name": "verifyFiler",
      "outputs": [],
      "stateMutability": "nonpayable",
      "type": "function"
    },
    {
      "inputs": [
        {
          "internalType": "address",
          "name": "_owner",
          "type": "address"
        }
      ],
      "name": "getFilerId",
      "outputs": [
        {
          "internalType": "uint256",
          "name": "",
          "type": "uint256"
        }
      ],
      "stateMutability": "view",
      "type": "function",
      "constant": true
    },
    {
      "inputs": [
        {
          "internalType": "uint256",
          "name": "filerId",
          "type": "uint256"
        }
      ],
      "name": "getFiler",
      "outputs": [
        {
          "internalType": "address",
          "name": "",
          "type": "address"
        },
        {
          "internalType": "uint256",
          "name": "",
          "type": "uint256"
        },
        {
          "internalType": "uint256",
          "name": "",
          "type": "uint256"
        },
        {
          "internalType": "uint256",
          "name": "",
          "type": "uint256"
        },
        {
          "internalType": "uint256",
          "name": "",
          "type": "uint256"
        },
        {
          "internalType": "uint256",
          "name": "",
          "type": "uint256"
        }
      ],
      "stateMutability": "view",
      "type": "function",
      "constant": true
    },
    {
      "inputs": [
        {
          "internalType": "uint256",
          "name": "filerId",
          "type": "uint256"
        }
      ],
      "name": "getFilerRemainingData",
      "outputs": [
        {
          "internalType": "string",
          "name": "",
          "type": "string"
        },
        {
          "internalType": "uint256",
          "name": "",
          "type": "uint256"
        },
        {
          "internalType": "string",
          "name": "",
          "type": "string"
        },
        {
          "internalType": "string",
          "name": "",
          "type": "string"
        },
        {
          "internalType": "uint256",
          "name": "",
          "type": "uint256"
        },
        {
          "internalType": "uint256",
          "name": "",
          "type": "uint256"
        },
        {
          "internalType": "bool",
          "name": "",
          "type": "bool"
        }
      ],
      "stateMutability": "view",
      "type": "function",
      "constant": true
    },
    {
      "inputs": [
        {
          "internalType": "address",
          "name": "user",
          "type": "address"
        }
      ],
      "name": "checkAuth",
      "outputs": [
        {
          "internalType": "bool",
          "name": "",
          "type": "bool"
        }
      ],
      "stateMutability": "view",
      "type": "function",
      "constant": true
    }
  ],
  "bytecode": "0x608060405234801561001057600080fd5b50600180546001600160a01b03191633179055610a06806100326000396000f3fe608060405234801561001057600080fd5b50600436106100885760003560e01c806391234b331161005b57806391234b3314610100578063d2a9885814610126578063dd49994f1461012e578063f90bff571461015357610088565b8063332ace901461008d5780634b165090146100a25780634da1896f146100cb5780638fd595b7146100eb575b600080fd5b6100a061009b36600461077f565b610166565b005b6100b56100b0366004610739565b6102be565b6040516100c291906108c1565b60405180910390f35b6100de6100d9366004610739565b6102e8565b6040516100c2919061092d565b6100f3610344565b6040516100c2919061087a565b61011361010e366004610767565b610353565b6040516100c297969594939291906108cc565b6100de610559565b61014161013c366004610767565b61055f565b6040516100c29695949392919061088e565b6100a0610161366004610767565b6105a5565b33600090815260036020526040902054600160a01b900460ff1615156001141561018f57600080fd5b61019960006105fe565b60006101a5600061061b565b33600081815260036020818152604080842080547fffffffffffffffffffffff00ffffffffffffffffffffffffffffffffffffffff7fffffffffffffffffffffffff0000000000000000000000000000000000000000918216881716600160a01b179091558685526002808452919094208681556001810180549095169095179093559183018f905582018d9055600482018c9055600582018b9055600682018a90558851929350610260926007909201919089019061061f565b50600081815260026020908152604090912060088101879055855161028d92600a9092019187019061061f565b506000908152600260205260409020600b810192909255600c820155600d01805460ff191690555050505050505050565b6001546000906001600160a01b03838116911614156102df575060016102e3565b5060005b919050565b60008060015b6102f8600061061b565b811161033d576000818152600260205260409020600101546001600160a01b038581169116141561032b5780915061033d565b8061033581610989565b9150506102ee565b5092915050565b6001546001600160a01b031681565b60008181526002602052604081206008810154600b820154600c830154600d84015460078501805460609796889687968996879687969593946009810194600a90910193929160ff169087906103a89061094e565b80601f01602080910402602001604051908101604052809291908181526020018280546103d49061094e565b80156104215780601f106103f657610100808354040283529160200191610421565b820191906000526020600020905b81548152906001019060200180831161040457829003601f168201915b505050505096508480546104349061094e565b80601f01602080910402602001604051908101604052809291908181526020018280546104609061094e565b80156104ad5780601f10610482576101008083540402835291602001916104ad565b820191906000526020600020905b81548152906001019060200180831161049057829003601f168201915b505050505094508380546104c09061094e565b80601f01602080910402602001604051908101604052809291908181526020018280546104ec9061094e565b80156105395780601f1061050e57610100808354040283529160200191610539565b820191906000526020600020905b81548152906001019060200180831161051c57829003601f168201915b505050505093509650965096509650965096509650919395979092949650565b60005481565b60009081526002602081905260409091206001810154918101546003820154600483015460058401546006909401546001600160a01b0390951695929491939092909190565b6001546001600160a01b031633146105bc57600080fd5b6000818152600260205260409020600d015460ff161515600114156105e057600080fd5b6000908152600260205260409020600d01805460ff19166001179055565b60018160000160008282546106139190610936565b909155505050565b5490565b82805461062b9061094e565b90600052602060002090601f01602090048101928261064d5760008555610693565b82601f1061066657805160ff1916838001178555610693565b82800160010185558215610693579182015b82811115610693578251825591602001919060010190610678565b5061069f9291506106a3565b5090565b5b8082111561069f57600081556001016106a4565b600082601f8301126106c8578081fd5b813567ffffffffffffffff808211156106e3576106e36109ba565b604051601f8301601f191681016020018281118282101715610707576107076109ba565b60405282815284830160200186101561071e578384fd5b82602086016020830137918201602001929092529392505050565b60006020828403121561074a578081fd5b81356001600160a01b0381168114610760578182fd5b9392505050565b600060208284031215610778578081fd5b5035919050565b6000806000806000806000806000806101408b8d03121561079e578586fd5b8a35995060208b0135985060408b0135975060608b0135965060808b0135955060a08b013567ffffffffffffffff808211156107d8578687fd5b6107e48e838f016106b8565b965060c08d0135955060e08d0135915080821115610800578485fd5b5061080d8d828e016106b8565b9350506101008b013591506101208b013590509295989b9194979a5092959850565b60008151808452815b8181101561085457602081850181015186830182015201610838565b818111156108655782602083870101525b50601f01601f19169290920160200192915050565b6001600160a01b0391909116815260200190565b6001600160a01b03969096168652602086019490945260408501929092526060840152608083015260a082015260c00190565b901515815260200190565b600060e082526108df60e083018a61082f565b88602084015282810360408401526108f7818961082f565b9050828103606084015261090b818861082f565b6080840196909652505060a0810192909252151560c090910152949350505050565b90815260200190565b60008219821115610949576109496109a4565b500190565b60028104600182168061096257607f821691505b6020821081141561098357634e487b7160e01b600052602260045260246000fd5b50919050565b600060001982141561099d5761099d6109a4565b5060010190565b634e487b7160e01b600052601160045260246000fd5b634e487b7160e01b600052604160045260246000fdfea2646970667358221220a646776d4e41d37d3e1db4b5fe9213725e020ee36d6a3f0080e18bd81aaee43b64736f6c63430008000033",
  "immutableReferences": {},
  "source": "//SPDX-License-Identifier: MIT\r\npragma solidity ^0.8.0;\r\n\r\nimport \"../contracts/Counter.sol\";\r\n\r\ncontract Taxation {\r\n    using Counters for Counters.Counter;\r\n    Counters.Counter public _filersIds;\r\n\r\n    address public adminMain;\r\n\r\n    constructor() {\r\n        adminMain = msg.sender;\r\n    }\r\n\r\n    modifier adminOnly() {\r\n        require(adminMain == msg.sender);\r\n        _;\r\n    }\r\n\r\n    struct Befiler {\r\n        uint256 filerID;\r\n        address owner;\r\n        uint256 salary;\r\n        uint256 business;\r\n        uint256 agriculture;\r\n        uint256 freelace;\r\n        uint256 bankAccountNo;\r\n        string vehicalName;\r\n        uint256 vehicalMarketValue;\r\n        string vehicalDocsHash;\r\n        string vehicalRegNo;\r\n        uint256 property;\r\n        uint256 cash;\r\n        bool isVerified;\r\n    }\r\n\r\n    mapping(uint256 => Befiler) befiler;\r\n\r\n    struct Checker {\r\n        address owner;\r\n        bool isApplied;\r\n    }\r\n\r\n    mapping(address => Checker) checker;\r\n\r\n    function becomeFiler(\r\n        uint256 _salary,\r\n        uint256 _business,\r\n        uint256 _agriculture,\r\n        uint256 _freelance,\r\n        uint256 _bankAccountNo,\r\n        string memory _vehicalName,\r\n        uint256 _vehicalMarketValue,\r\n        string memory _vehicalRegNo,\r\n        uint256 _property,\r\n        uint256 _cash\r\n    ) public {\r\n        require(checker[msg.sender].isApplied != true);\r\n\r\n        _filersIds.increment();\r\n        uint256 newFilerId = _filersIds.current();\r\n\r\n        checker[msg.sender].owner = msg.sender;\r\n        checker[msg.sender].isApplied = true;\r\n\r\n        befiler[newFilerId].filerID = newFilerId;\r\n        befiler[newFilerId].owner = msg.sender;\r\n        befiler[newFilerId].salary = _salary;\r\n        befiler[newFilerId].business = _business;\r\n        befiler[newFilerId].agriculture = _agriculture;\r\n        befiler[newFilerId].freelace = _freelance;\r\n        befiler[newFilerId].bankAccountNo = _bankAccountNo;\r\n        befiler[newFilerId].vehicalName = _vehicalName;\r\n        befiler[newFilerId].vehicalMarketValue = _vehicalMarketValue;\r\n        befiler[newFilerId].vehicalRegNo = _vehicalRegNo;\r\n        befiler[newFilerId].property = _property;\r\n        befiler[newFilerId].cash = _cash;\r\n        befiler[newFilerId].isVerified = false;\r\n    }\r\n\r\n    // admin verify the filer\r\n    function verifyFiler(uint256 filerId) public adminOnly {\r\n        require(befiler[filerId].isVerified != true);\r\n        befiler[filerId].isVerified = true;\r\n    }\r\n\r\n    // get the filer id of the user\r\n    function getFilerId(address _owner) public view returns (uint256) {\r\n        uint256 id = 0;\r\n        for (uint256 i = 1; i <= _filersIds.current(); i++) {\r\n            if (befiler[i].owner == _owner) {\r\n                id = i;\r\n                break;\r\n            }\r\n        }\r\n        return id;\r\n    }\r\n\r\n    // get the filer details by filer id\r\n    function getFiler(uint256 filerId)\r\n        public\r\n        view\r\n        returns (\r\n            address,\r\n            uint256,\r\n            uint256,\r\n            uint256,\r\n            uint256,\r\n            uint256\r\n        )\r\n    {\r\n        return (\r\n            befiler[filerId].owner,\r\n            befiler[filerId].salary,\r\n            befiler[filerId].business,\r\n            befiler[filerId].agriculture,\r\n            befiler[filerId].freelace,\r\n            befiler[filerId].bankAccountNo\r\n        );\r\n    }\r\n\r\n    // get the filer remaining details by filer id\r\n    function getFilerRemainingData(uint256 filerId)\r\n        public\r\n        view\r\n        returns (\r\n            string memory,\r\n            uint256,\r\n            string memory,\r\n            string memory,\r\n            uint256,\r\n            uint256,\r\n            bool\r\n        )\r\n    {\r\n        return (\r\n            befiler[filerId].vehicalName,\r\n            befiler[filerId].vehicalMarketValue,\r\n            befiler[filerId].vehicalDocsHash,\r\n            befiler[filerId].vehicalRegNo,\r\n            befiler[filerId].property,\r\n            befiler[filerId].cash,\r\n            befiler[filerId].isVerified\r\n        );\r\n    }\r\n\r\n    function checkAuth(address user) public view returns (bool) {\r\n        if (adminMain == user) {\r\n            return true;\r\n        } else {\r\n            return false;\r\n        }\r\n    }\r\n}\r\n",
  "sourcePath": "/home/zaryab/VSCodeProjects/taxation-system-user/src/contracts/Taxation.sol",
  "compiler": {
    "name": "solc",
    "version": "0.8.0+commit.c7dfd78e.Emscripten.clang"
  },
  "schemaVersion": "3.4.5",
  "updatedAt": "2022-05-25T02:18:21.228Z",
  "networkType": "ethereum",
  "devdoc": {
    "kind": "dev",
    "methods": {},
    "version": 1
  },
  "userdoc": {
    "kind": "user",
    "methods": {},
    "version": 1
  }
}